:020000040800F2
:10000000F0100020D10100086D2300084D150008F4
:1000100047220008951100080F3900080000000071
:10002000000000000000000000000000E32E0008B7
:100030009911000800000000152B0008D1300008BD
:10004000EB010008EB010008EB010008EB010008E0
:10005000EB010008EB010008EB010008EB010008D0
:10006000EB010008EB010008EB010008EB010008C0
:10007000EB010008EB010008EB010008EB010008B0
:10008000EB010008EB010008EB010008EB010008A0
:10009000EB010008EB010008EB010008EB01000890
:1000A000EB010008EB010008EB010008EB01000880
:1000B000EB010008EB010008EB010008EB01000870
:1000C000EB010008EB010008EB010008EB01000860
:1000D000EB010008E134000845360008EB01000898
:1000E0009D110008EB010008EB01000800F002F888
:1000F00000F05FF80AA090E8000C82448344AAF163
:100100000107DA4501D100F054F8AFF2090EBAE860
:100110000F0013F0010F18BFFB1A43F0010318473B
:10012000488A0000688A00000A444FF0000C10F86A
:10013000013B13F0070408BF10F8014B1D1108BF65
:1001400010F8015B641E05D010F8016B641E01F805
:10015000016BF9D113F0080F1EBF10F8014BAD1C55
:100160000C1B09D16D1E58BF01F801CBFAD505E073
:1001700014F8016B01F8016B6D1EF9D59142D6D3CD
:10018000704700000023002400250026103A28BFF5
:1001900078C1FBD8520728BF30C148BF0B607047F9
:1001A000642900F06780002070471FB51FBD10B59F
:1001B00010BD00F0CBFA1146FFF7F7FF05F0B2F9DA
:1001C00000F0E9FA03B4FFF7F2FF03BC03F06DFCA3
:1001D0000948804709480047FEE7FEE7FEE7FEE7DB
:1001E000FEE7FEE7FEE7FEE7FEE7FEE70448054917
:1001F000054A064B70470000D5300008ED000008A6
:10020000F00A0020F0100020F00C0020F00C00207C
:10021000704710B54C1084EA530404D54042C1F134
:10022000000138BF491E1B4204D55242C3F10003EE
:1002300038BF5B1E00F02EF914F0804F04D040420E
:10024000C1F1000138BF491E14F0004F04D05242E2
:10025000C3F1000338BF5B1E10BD00000FB404499A
:1002600010B503AA029800F0F1F910BC5DF814FB78
:100270004C0000202DE9F041064600241068752945
:10028000314616A510D0AFF30080002802DA4042B4
:1002900013A507E031688A0701D512A502E04907D6
:1002A00004D511A5012401E0AFF3008000210A224A
:1002B00006F1240709E0B0FBF2FCB0FBF2F302FB0D
:1002C0001C00303078541846491C0028F3D12346CE
:1002D0002A463046BDE8F04100F05EB9000000005B
:1002E0002D0000002B000000200000002DE9F05F31
:1002F000894604464FF0000ADFF824B1FB44C0F8F9
:1003000020A02046E168884700287DD0252806D017
:10031000D4E901219047206A401C2062F1E70025C2
:100320005F462046E16888472028064607DB312ED5
:1003300005D2B81910F8200C08B10543F1E7A80759
:1003400001D525F00405C4F81CA00027C4F818A0A6
:100350002A2E09D0304603F0A1FB38B304EB8708FE
:10036000303EC8F8186019E059F8041B204604EB29
:1003700087029161E1688847012F064618D1E0693C
:10038000002820DA25F020051DE0D8F8180000EB41
:10039000800006EB40003038C8F818002046E168BD
:1003A0008847064603F07AFB0028EED1012F0AD0D9
:1003B0002E2E08D12046E16888477F1C0646022F72
:1003C00045F02005C4DBA069002803DA404245F06F
:1003D0000105A061E80701D025F01005A6B1A6F13E
:1003E0004100192802D8203645F400654A463146B6
:1003F000204625604D46FFF7D3FE60B1012807D0A7
:10040000ED1D25F0070000E007E000F1080978E79E
:1004100005F1040975E730467AE7206ABDE8F09FE8
:100420001287000040EA010310B59B070FD1042A90
:100430000DD310C808C9121F9C42F8D020BA19BAAF
:10044000884201D9012010BD4FF0FF3010BD1AB114
:10045000D30703D0521C07E0002010BD10F8013B69
:1004600011F8014B1B1B07D110F8013B11F8014B90
:100470001B1B01D1921EF1D1184610BD02F0FF03E3
:1004800043EA032242EA024200F0F4B870477047A0
:100490007047704753EA020C00F069802DE9F04B79
:1004A0004FF00006002B1FBFB3FA83F503FA05F4E3
:1004B00024FA05F65E4012BF1643B2FA82F502FA3C
:1004C00005F4C5F120051EBF22FA05FC44EA0C0420
:1004D000203556EA044C4FEA144418BF641C4FF010
:1004E00000084FF00009904271EB030C39D300294A
:1004F00019BFB1FA81F701FA07F6B0FA80F700FAEE
:1005000007F6C7F120071EBF20FA07FC46EA0C06D3
:100510002037B6FBF4FCA7EB0507103F07F01F0BD5
:10052000CBF120060CFA0BFB2CFA06F644BFB346BF
:100530000026202FA4BF5E464FF0000B5BEA060C9E
:1005400008BF4FF0010B19EB0B09ABFB027C48EB2A
:100550000608C01B06FB02CC0BFB03CC71EB0C01A5
:10056000C1E70B46024641464846BDE8F08B13B54D
:100570004FF000004FF00001AFF30080BDE81C40D9
:10058000704710B500F096F8006810BD10B504462D
:1005900000F090F8046010BD2DE9F0470D46994633
:1005A0009246044600F124080168880604D5E069F3
:1005B00021F01001216000E00120A84201DD471B6D
:1005C00000E00027A1697A1902EB0900081AA0616E
:1005D0002078C00602D42046AFF30080002608E051
:1005E000D4E901211AF806009047206A401C761CC5
:1005F00020624E45F4DB2078C0060AD52046AFF3D2
:10060000008006E0D4E9012130209047206A401C98
:100610002062381EA7F10107F4DC07E0D4E90121CC
:1006200018F805009047206A401C2062281EA5F19A
:100630000105F3DC2046AFF300802078000602D5E8
:100640000220BDE8F0870120FBE70000074B70B5F2
:100650000D467B4400F037F80446284600F046F883
:1006600010B14FF0FF3070BD204670BD074800004C
:100670004FF000020429C0F0128010F0030C00F0CB
:100680003B80CCF1040CBCF1020F18BF00F8012B29
:10069000A8BF20F8022BA1EB0C0100F02DB85FEAF7
:1006A000C17C24BF00F8012B00F8012B48BF00F8E3
:1006B000012B704700487047900A002001694A1CCE
:1006C00002610878704700B58FB0CDE90131002193
:1006D000059105497944CDE9031011466846FFF7B5
:1006E00005FE0FB000BD0000E5FFFFFF007B00F03E
:1006F000800070474FF0000200B5134694469646BE
:10070000203922BFA0E80C50A0E80C50B1F1200124
:10071000BFF4F7AF090728BFA0E80C5048BF0CC0D2
:100720005DF804EB890028BF40F8042B08BF704730
:1007300048BF20F8022B11F0804F18BF00F8012BA2
:100740007047000000487047900A00207546FFF788
:10075000F9FFAE4605006946534620F0070085467E
:1007600018B020B5FFF742FDBDE820404FF000066D
:100770004FF000074FF000084FF0000B21F0070189
:10078000AC46ACE8C009ACE8C009ACE8C009ACE8CC
:10079000C0098D46704710B50446AFF3008020466F
:1007A000BDE81040FFF70EBD2DE9F04704460E46A8
:1007B0000027B846002500BF07E014F808003844B9
:1007C000C7B208F1010000F0FF08701E4045F4DCDC
:1007D000A01910F8010CB84201D0BDE8F0872078CC
:1007E000AA2802D16078AF2800D0F6E7A0780128C7
:1007F0000FD1207901280CD02079022809D0207946
:10080000032806D02079312803D02079A02800D0F1
:1008100000BFA07802280BD12079012801D100F077
:10082000AFFA2079A12803D101F0F8FF00F0A8FA6F
:10083000A07810287DD12079617941EA002078499B
:100840000880207A617A41EA002075498880A07A80
:10085000E17A41EA00207249C880207B617B41EA4D
:1008600000206F490881207C617C41EA00206C49AE
:100870008881A07CE17C41EA00206949C881207D13
:10088000617D41EA002066490882088807F06AF81D
:100890008146644906F01CFF634908606049888806
:1008A00007F060F881465F4906F012FF5F49086073
:1008B0005B49C88807F056F881465A4906F008FF98
:1008C0005B4908605649088907F04CF8814655494C
:1008D00006F0FEFE574908605149888907F042F842
:1008E0008146504906F0F4FE534908604C49C889D6
:1008F00007F038F881464B4906F0EAFE4F49086098
:100900004749088A07F02EF88146464906F0E0FE7E
:100910004B490860002506E00BE0A078394600F05E
:1009200099F8681CC5B2012DF7DB02F07BF800F0E6
:1009300027FAA078112840D12079617941EA002076
:1009400037494882A07AE17A41EA00203449088395
:10095000207B617B41EA002031494883A07BE17B19
:1009600041EA00202E498883887C06F0FBFF354948
:1009700008602B49088B06F0DDFF334908602849E1
:10098000488B06F0EFFF314908602549888B06F057
:10099000E9FF8146234906F09BFE2D4908600025AA
:1009A00005E0A078394600F055F8681CC5B2012D65
:1009B000F7DB02F037F800F0E3F9A07812280BD14A
:1009C000002505E0A078394600F044F8681CC5B25F
:1009D000012DF7DB02F026F8A07813280BD10025B3
:1009E00005E0A078394600F035F8681CC5B2012D45
:1009F000F7DB02F017F8A078142805D1A078394663
:100A000000F028F802F00EF8A078152805D1A0789B
:100A1000394600F01FF802F005F800BFDDE60000DF
:100A2000680800200000C8429C000020A0000020B0
:100A3000A4000020A8000020AC000020B00000208E
:100A4000B4000020B8000020BC000020C00000203E
:100A5000C40000202DE9F04105460E460027002481
:100A6000AA200D4908704870EF2088700220C870D5
:100A700008460571467100BF05E00748005D38442F
:100A8000C7B2601CC4B2062CF7DB0348877107218C
:100A900000F004F8BDE8F0810404002070B50546BC
:100AA0000E4600240CE000BF4021074802F088FEFB
:100AB0000028F9D0295D044802F025FF601CC4B26B
:100AC000B442F0DB70BD0000004400407FB500245C
:100AD00000260025AA222146641C4648425421468D
:100AE000641C425406222146641C425400222146C2
:100AF000641C42549DF801202146641C42549DF818
:100B000000202146641C42549DF805202146641CA7
:100B100042549DF804202046611CCCB235490A5449
:100B20009DF809202046611CCCB232490A549DF838
:100B300008202046611CCCB22E490A549DF80D2095
:100B40002046611CCCB22B490A549DF80C2020464B
:100B5000611CCCB227490A549DF821202046611C13
:100B6000CCB224490A549DF820202046611CCCB206
:100B700020490A549DF825202046611CCCB21D490D
:100B80000A549DF824202046611CCCB219490A540D
:100B90009DF829202046611CCCB216490A549DF8C4
:100BA00028202046611CCCB212490A549DF82D2001
:100BB0002146601CC4B20F4842549DF82C202046A8
:100BC000611CCCB20B490A54201FC87000BF05E05D
:100BD0000848405D3044C6B2681CC5B2A542F7DB88
:100BE0002046611CCCB203490E5421460148FFF750
:100BF00055FF7FBD040400202DE9F84F06460F463F
:100C000090469946DDF828B00024A2460025AA2285
:100C10002146641C594842542146641C425406F142
:100C20000F00C2B22146641C54484254002221469F
:100C3000641C425400979DF801202146641C4254D4
:100C40009DF800202146641C4254CDF800809DF898
:100C500001202146641C42549DF800202046611C5E
:100C6000CCB246490A54CDF800909DF801202046A8
:100C7000611CCCB241490A549DF800202046611CF9
:100C8000CCB23E490A54CDF800B09DF80120204670
:100C9000611CCCB239490A549DF800202046611CE1
:100CA000CCB236490A540B9800909DF8012020469A
:100CB000611CCCB231490A549DF800202046611CC9
:100CC000CCB22E490A540C9800909DF80120204681
:100CD000611CCCB229490A549DF800202046611CB1
:100CE000CCB226490A540D9800909DF80120204668
:100CF000611CCCB221490A549DF800202046611C99
:100D0000CCB21E490A540E9800909DF8012020464E
:100D1000611CCCB219490A549DF800202046611C80
:100D2000CCB216490A540F9800909DF80120214634
:100D3000601CC4B2114842549DF800202146601C3A
:100D4000C4B20E484254201F0C49C87000BF06E0D0
:100D50000A48405D504400F0FF0A681CC5B2A54235
:100D6000F6DB2046611CCCB2044901F800A0214604
:100D70000248FFF793FEBDE8F88F0000040400204E
:100D800010B586B001F094FD2048008A00B21F49DA
:100D9000C98909B21D4A928912B21C4B5B891BB2E8
:100DA000CDE90232CDE904101848008900B2174994
:100DB000C98809B2CDE900101448808803B21348ED
:100DC000408802B21148008801B20120FFF714FFE9
:100DD0000F48006806F072FD6421484304B2002009
:100DE000CDE90240049005900848408B00B20749C5
:100DF000098B09B2CDE900100448408A01B20023F2
:100E00001A460220FFF7F8FE06B010BD6808002061
:100E1000C40000202DE9F84306460F460024A046F2
:100E20000025AA222146641C1E4842542146641C07
:100E3000425405222146641C425400222146641C6F
:100E4000425400969DF801202146641C42549DF8AE
:100E500000202146641C425400979DF80120214641
:100E6000641C42549DF800202046611CCCB20D4900
:100E70000A54201FC87000BF06E00A48405D404485
:100E800000F0FF08681CC5B2A542F6DB2046611CD5
:100E9000CCB2044901F8008021460248FFF7FEFD6C
:100EA000BDE8F883040400202DE9FE4F82460E467B
:100EB00017469846DDF830B00024A1460025CDF84D
:100EC0000480AA222146641C474842542146641CDF
:100ED000425401222146641C425400222146641CD3
:100EE00042544249504606F085FD009006F0E6FC6B
:100EF00000B202909DF809202146641C3A484254F1
:100F00009DF808202146641C42543849304606F0BA
:100F100071FD009006F0D2FC00B202909DF809200D
:100F20002146641C304842549DF808202046611C2C
:100F3000CCB22D490A542D49384606F05BFD00908D
:100F400006F0BCFC00B202909DF809202146601C0E
:100F5000C4B2254842549DF808202146601CC4B202
:100F6000214842549DF807202046611CCCB21E49FE
:100F70000A549DF806202046611CCCB21A490A5436
:100F80009DF805202046611CCCB217490A549DF8F3
:100F900004202146601CC4B2134842542046611C00
:100FA000CCB2114901F800B02146621CD4B20E4AFD
:100FB0000D985054201F1146C87000BF06E00A4823
:100FC000405D484400F0FF09681CC5B2A542F6DB4D
:100FD0002046611CCCB2044901F800902146024829
:100FE000FFF75CFDBDE8FE8F040400200000C8424E
:100FF00070B504460D4600F033F8052205492A2055
:1010000000F00AF82A462146A02000F005F800F07A
:101010001DF870BD8D0000202DE9F04107460D46FA
:10102000164600F02FF8384600F098F88046002465
:1010300004E0285D00F092F8601CC4B2B442F8DB12
:1010400000F018F84046BDE8F081000010B54FF4FC
:101050008071024800F078FA10BD0000000C0140D9
:1010600010B54FF48071024800F06CFA10BD00001A
:10107000000C014010B58021014800F065FA10BD58
:10108000000C014010B58021014800F05BFA10BD52
:10109000000C014000B587B00121082001F04CFD93
:1010A0000121082001F048FD0121880301F034FDF1
:1010B0004FF46040ADF8040001208DF806001820C0
:1010C0008DF8070001A9234800F068F98020ADF8E9
:1010D000040001208DF8060010208DF8070001A9FA
:1010E0001C4800F05BF980211A4800F02DFA4FF4FB
:1010F0008070ADF8040001208DF8060010208DF8F6
:10110000070001A9134800F049F90020ADF80800D4
:101110004FF48270ADF80A000020ADF80C00ADF875
:101120000E00ADF810004FF40070ADF8120008206A
:10113000ADF814000020ADF816000720ADF8180037
:1011400002A9054801F08CFD0121034801F06EFD64
:1011500007B000BD000C01400038004010B5044647
:1011600000BF02210A4801F06DFD0028F9D0214698
:10117000074801F073FD00BF0121054801F062FD41
:101180000028F9D0024801F066FDC0B210BD000091
:101190000038004000BFFEE77047000010B53A4835
:1011A000006800286DD14FF4804038490860384805
:1011B000007808B9012000E0002035490870084691
:1011C0000078012806D1334A3349344804F03AFA0A
:1011D000002010BD2F4A3049304804F033FA2D4822
:1011E000006880F0004421462D48006805F0DEFBD1
:1011F0002C49086000F0E6F92B492648006806F003
:10120000C5FC05D929492348006806F0BFFB0CD866
:1012100001202749087000231A461946184601F094
:10122000D5FEFE21084601F0A7FA214800780128E2
:1012300010D100201E49087004F016FB154A16490B
:10124000164804F0FFF900201549086000210846FF
:1012500001F092FA02F05EFB16480078012806D1F0
:1012600000231A461946184601F0B0FE09E012485C
:10127000036812480268124801681248006801F0C9
:10128000A5FE0020A5E7000038012142140401401A
:10129000FD0000200C0000200800002004000020B9
:1012A000C40000201401002000002F4300002FC3C1
:1012B00000010020FF000020100100200C01002090
:1012C0000801002004010020002123498279002A1E
:1012D0003AD00A46126803689A430B461A600A1D00
:1012E000126803689A430B1D1A60027911440A6858
:1012F00003681A430A60184A0832126803689A435E
:10130000154B08331A601A1D126803689A43124B72
:101310000C331A604279102A0ED11A1F1268036822
:101320001A430D4B08331A601A1D126803681A43DA
:10133000094B0C331A600DE00749427911440A68E1
:1013400003681A430A6005E0027911440A680368D9
:101350009A430A60704700000004014030B5002243
:101360008B071C0F0F2303FA04F20B4B8C1053F85E
:1013700024309343084C8D1044F8253023468C10BC
:1013800053F824308C07240F00FA04F42343024C52
:101390008D1044F8253030BD080001402DE9F041A2
:1013A000024600250026002000230024002791F893
:1013B00003C00CF00F0591F803C00CF0100CBCF149
:1013C000000F03D091F802C04CEA050591F800C067
:1013D000BCF1000F31D0146800202BE04FF0010C5D
:1013E0000CFA00F3B1F800C00CEA03069E4220D1CB
:1013F00083004FF00F0C0CFA03F7BC4305FA03FC13
:101400004CEA040491F803C0BCF1280F06D14FF058
:10141000010C0CFA00FCC2F814C00AE091F803C0F9
:10142000BCF1480F05D14FF0010C0CFA00FCC2F8DA
:1014300010C0401C0828D1D31460B1F800C0BCF122
:10144000FF0F34DD546800202EE000F1080C4FF04F
:10145000010808FA0CF3B1F800C00CEA03069E423A
:1014600021D183004FF00F0C0CFA03F7BC4305FAAF
:1014700003FC4CEA040491F803C0BCF1280F05D129
:1014800000F1080C08FA0CF8C2F8148091F803C0B7
:10149000BCF1480F07D100F1080C4FF0010808FA21
:1014A0000CF8C2F81080401C0828CED35460BDE868
:1014B000F0810000F0B50A46002300240021002539
:1014C00000F00046B6F1004F02D11D4EF16901E077
:1014D0001B4E7168C0F3034583B200F44016B6F5A5
:1014E000401F08D121F07061154E766826F07066B5
:1014F000134F7E6012E000F48016B6F5801F06D10F
:10150000032606FA05F4A14341F0706106E0460D9A
:10151000360103FA06F6B14341F0706122B1460D7F
:10152000360103FA06F6314300F00046B6F1004FEB
:1015300002D1034EF16101E0014E7160F0BD000087
:1015400000000140416170470161704700BFFEE744
:1015500010B54FF4A06000F043FF4FF4612005F098
:101560009FFA02F033FE01F09FF900F019FD01F03F
:1015700023F801F0A3F8FFF78DFD002141F61F408D
:1015800000F08EFE04F070F930B106A0FEF766FEA2
:10159000642002F03DFE02E006A0FEF75FFE00F0D0
:1015A00047FB10BD4D505536303530204572726FB7
:1015B000720D0A004D505536303530204F4B0D0A14
:1015C0000000000070B500F071FFFC4908700520B4
:1015D00000F010FFFA490870062000F00BFFF949EF
:1015E0000870072000F006FFF7490870082000F097
:1015F00001FFF6490870F1480078112878D2DFE839
:1016000000F009131A242E3478BBFDFCFBFAF9F81C
:10161000F7F6F5000020EE490860EE490860EE4953
:101620000860EE4908607DE1ED48006880F0004008
:10163000EC49086076E10020E5490860E54908606A
:10164000E5490860E54908606CE10020E049086070
:10165000E0490860E0490860E049086062E104F0A0
:1016600003F90020DF4908605CE1DF48006806F00C
:1016700061F90646DD48006880F00045314628469D
:1016800005F0B8FF044606F019F9D1490860D648BC
:10169000006806F04FF90546D4480168284605F071
:1016A000A9FF044606F00AF9CA490860CE48006856
:1016B00006F040F90546CD480168284605F09AFF36
:1016C000044606F0FBF8C4490860C748006806F005
:1016D00031F90646C548006880F000453146284685
:1016E00005F088FF044606F0E9F8BC49086019E1F6
:1016F00017E1BD48006806F01DF90646BB480068C2
:1017000080F000453146284605F074FF044606F097
:10171000D5F8AF490860B448006806F00BF90646F2
:10172000B248006880F000453146284605F062FF67
:10173000044606F0C3F8A7490860AB48006806F005
:10174000F9F80546A9480168284605F053FF044604
:1017500006F0B4F8A0490860A348006806F0EAF86B
:101760000546A2480168284605F044FF044606F0F5
:10177000A5F89A490860D5E09B48006806F0DAF8B9
:1017800005469A480168284605F034FF044606F0ED
:1017900095F88F4908609448006806F0CBF8064633
:1017A0009248006880F000453146284605F022FF47
:1017B000044606F083F8874908608B48006806F005
:1017C000B9F806468948006880F000453146284649
:1017D00005F010FF044606F071F87F490860824862
:1017E000006806F0A7F80546804808E095E090E01C
:1017F0008BE086E075E063E058E04DE009E00168C9
:10180000284605F0F7FE044606F058F873490860CC
:1018100088E07548006806F08DF805467348016851
:10182000284605F0E7FE044606F048F868490860D7
:101830006D48006806F07EF805466C480168284649
:1018400005F0D8FE044606F039F86249086066489B
:10185000006806F06FF806466448006880F00045AE
:101860003146284605F0C6FE044606F027F85A49D8
:1018700008605D48006806F05DF806465B48006851
:1018800080F000453146284605F0B4FE044606F0D7
:1018900015F85249086045E000204D4908604D495F
:1018A00008604D4908604D4908603BE00020484908
:1018B000086048490860484908604849086031E0C4
:1018C0004FF47A6042490860424908604249086022
:1018D000424908604248006880F000404149086081
:1018E00020E043483A4908603A4908603A490860AC
:1018F0003A4908603A48006880F000403949086079
:1019000010E03C48394908600CE03B483749086022
:1019100008E03A483549086004E03948334908602E
:1019200000E000BF00BF2948007883286CDD00205C
:10193000344908702C48006805F0FCFF05462B4828
:101940000168284605F056FE044605F0B7FF204919
:1019500008602548006805F0EDFF0646234800684A
:1019600080F000453146284605F044FE044605F067
:10197000A5FF184908601C48006805F0DBFF064613
:101980001A48006880F000453146284605F032FECE
:10199000044605F093FF104908601348006805F0FD
:1019A000C9FF054611480168284605F023FE044694
:1019B00005F084FF094908606FE025E0F800002089
:1019C000FA000020F9000020FB000020FC000020AD
:1019D00004010020080100200C010020100100205B
:1019E0000C000020C400002014010020BC000020D6
:1019F00060F0FFFF00409C450080BB4500C0DA4519
:101A000000A08C45FF0000207F4800787D2844DA44
:101A100000207E4908707E48006805F08BFF06466E
:101A20007C48006880F000453146284605F0E2FD1C
:101A3000044605F043FF784908607548006805F0E2
:101A400079FF054673480168284605F0D3FD044632
:101A500005F034FF714908606D48006805F06AFFC1
:101A600005466C480168284605F0C4FD044605F0AB
:101A700025FF6B4908606648006805F05BFF064675
:101A80006448006880F000453146284605F0B2FD04
:101A9000044605F013FF6349086063480078832813
:101AA00045DD0020594908705948006805F042FF9B
:101AB00006465848006880F000453146284605F043
:101AC00099FD044605F0FAFE534908605048006845
:101AD00005F030FF06464F48006880F0004531466B
:101AE000284605F087FD044605F0E8FE4B490860EE
:101AF0004748006805F01EFF05464648016828462D
:101B000005F078FD044605F0D9FE454908604048D7
:101B1000006805F00FFF05463E480168284605F0BD
:101B200069FD044605F0CAFE3E4908605FE03E4894
:101B300000787D2845DA0020344908703448006870
:101B400005F0F8FE054633480168284605F052FDC9
:101B5000044605F0B3FE304908602D48006805F0E2
:101B6000E9FE05462B480168284605F043FD04467A
:101B700005F0A4FE294908602548006805F0DAFE52
:101B800006462448006880F000453146284605F0A6
:101B900031FD044605F092FE214908601C480068AA
:101BA00005F0C8FE06461B48006880F00045314637
:101BB000284605F01FFD044605F080FE194908601F
:101BC00015E0114800787D2811DD0F480078832842
:101BD0000DDA154800787D2809DD13480078832840
:101BE00005DA1248007810B90120084908700F483A
:101BF00000780B2803D00D4800780C2802D1002073
:101C00000249087070BD0000FC000020FF000020A9
:101C100014010020BC000020040100200801002065
:101C20000C01002010010020FA000020F800002024
:101C30001FB50121084600F07FFF0121042000F0BC
:101C40007BFF4FF48050ADF80C0048208DF80F005A
:101C500003A91248FFF7A2FB0E210020FFF77EFB2D
:101C60004FF48040019000208DF808000C208DF882
:101C7000090001208DF80A0001A8FFF725FB2820A4
:101C80008DF8000002208DF8010001208DF802007F
:101C90008DF80300684600F06BFB1FBD0008014093
:101CA0002DE9F84F6B4602224121682000F0F5F93A
:101CB0009DF801009DF8001040EA01200FFA80FA1B
:101CC000504605F079F9804600220B4B05F01CF8D0
:101CD00006460A4A0A4B04F067FF044604F032FF46
:101CE00083460849584605F085FE044605F0E6FDA2
:101CF00000B2BDE8F88F000000407540A4703D0AB6
:101D0000D74342400000C84210B500200E49086089
:101D10000E48006820F470400C49086008460068CE
:101D200040F44050086000200949C1F8AC0100F0BF
:101D300011F801200449086000F00CF80020044963
:101D4000C1F8A80110BD0000A8812142040C014087
:101D50000080214210B5022002F080FA10BD000080
:101D600008B50121082000F0E7FE4FF44060ADF80F
:101D7000000010208DF8030003208DF80200694652
:101D80000448FFF70BFB4FF440610248FFF7DCFB10
:101D900008BD0000000C014010B500200E4908608D
:101DA0000E48006820F470400C490860084600683E
:101DB00040F44050086001200949C1F8AC01FFF728
:101DC000C9FF012004490860FFF7C4FF002004494F
:101DD000C1F8A80110BD0000A8812142040C0140F7
:101DE0000080214270B5054600241648006820F4A2
:101DF0007040144908600846006840F400400860DC
:101E0000002614E0002010490860FFF7A3FF01201E
:101E10000E49C1F8A8016006040E0B487C38006822
:101E200008B1601CC4B2FFF795FF701CC6B2082E43
:101E3000E8DB15B9FFF7B0FF01E0FFF765FF2046CB
:101E400070BD0000040C0140A881214200802142A5
:101E500070B504461248006820F4704010490860CC
:101E60000846006840F44050086000200D490860B2
:101E7000002512E0E0090B49091D08606006040E08
:101E800001200949C1F8A801FFF764FF00200549B6
:101E90000860FFF75FFF681CC5B2082DEADB70BD64
:101EA000040C0140A88121420080214210B50E4857
:101EB000006820F470400C4908600846006840F44F
:101EC000405008600120094908600949C1F8A8018B
:101ED000FFF740FF002005490860FFF73BFF0020A7
:101EE0000349C1F8A80110BD040C0140AC81214296
:101EF0000080214210B50E48006820F470400C4963
:101F000008600846006840F4405008600020094915
:101F100008600949C1F8AC01FFF71CFF0120054921
:101F200008600549C1F8AC01FFF714FF10BD0000BF
:101F3000040C0140A88121420080214210B50024F8
:101F40001448006820F47040124908600846006890
:101F500040F40040086001200F490860FFF7FAFED6
:101F600001200E49C1F8A801FFF7F4FE07E0601C4C
:101F7000C4B2FA2C03DDFFF7BDFF012010BD0648F7
:101F8000803800680028F2D10349091F086000BFAB
:101F9000F4E70000040C0140AC81214200802142A2
:101FA00038B50121084600F0C7FD0121042000F0EA
:101FB000C3FD4FF40040ADF8000010208DF8030081
:101FC00003208DF8020069462248FFF7E7F9012156
:101FD0002148FFF76FFA002020490860FFF7C0FE94
:101FE00080216B2000F0DDF8642002F011F900215F
:101FF0006B2000F0D6F8032000F091F8002000F0EC
:1020000086F8322000F0B0F80021382000F0C9F83E
:1020100000216A2000F0C5F80021232000F0C1F85B
:102020008021372000F0BDF8752000F019F8044633
:10203000682C0BD101216B2000F0B3F800216C203B
:1020400000F0AFF8322000F08FF801E0012038BD39
:102050000020FCE70008014000023000BC012142E2
:1020600070B50446FFF722FFD020FFF7F1FEFFF71F
:1020700065FF2046FFF7ECFEFFF760FFFFF716FF56
:10208000D120FFF7E5FEFFF759FF0020FFF7AAFE7A
:102090000546FFF72FFF284670BD2DE9F0410646A3
:1020A0000F4614461D46FFF701FF002141EA460195
:1020B000C8B2FFF7CDFEFFF741FF20B1FFF71AFFCF
:1020C0000120BDE8F0813846FFF7C2FEFFF736FF7A
:1020D000FFF7ECFE012101EB4601C8B2FFF7B8FEA5
:1020E000FFF72CFF0DE0012C04D10020FFF77AFE52
:1020F000287003E00120FFF775FE2870601EC4B24F
:102100006D1C002CEFD1FFF7F5FE0020D9E710B5CC
:102110000446E006010E1C2000F043F810BD10B587
:102120000446E006010E1B2000F03BF810BD70B520
:1021300004460025BC2C01DB012510E0622C01DBEC
:1021400002250CE02A2C01DB032508E0142C01DB1E
:10215000042504E00A2C01DB052500E006252946BC
:102160001A2000F01EF870BD70B50446B4F57A7FF1
:1021700001DD4FF47A74042C00DA04244FF47A70F1
:1021800090FBF4F0401EC5B22946192000F009F872
:102190000546264604EBD671C1F34F00FFF7C7FF93
:1021A00070BD70B505460C46FFF780FED020FFF7E6
:1021B0004FFEFFF7C3FE18B1FFF79CFE012070BD74
:1021C0002846FFF745FEFFF7B9FE2046FFF740FE21
:1021D000FFF7B4FE18B1FFF78DFE0120EFE7FFF720
:1021E00089FE0020EBE72DE9F04105460E46174633
:1021F0009846FFF75BFE002141EA4501C8B2FFF7B0
:1022000027FEFFF79BFE20B1FFF774FE0120BDE81B
:10221000F0813046FFF71CFEFFF790FE00240CE033
:1022200018F80400FFF714FEFFF788FE18B1FFF757
:1022300061FE0120EBE7601CC4B2BC42F0DBFFF79B
:1022400059FE0020E3E700BFFEE7000008B50121CA
:10225000082000F071FC0121042000F06DFC4FF417
:102260007040ADF8000010208DF8030003208DF8B9
:10227000020069460848FFF791F8F020ADF8000029
:1022800010208DF8030003208DF8020069460348F2
:10229000FFF784F808BD0000000C01400008014071
:1022A00030B589B005460C46FFF7D0FF0121C802C2
:1022B00000F042FC0121042000F03EFC4FF470606D
:1022C000ADF8200018208DF8230003208DF822009F
:1022D00008A92448FFF762F8ADF81850ADF814408B
:1022E0000020ADF81A00ADF8160005A91E4801F04F
:1022F000A5F86020ADF804000120ADF8060000202C
:10230000ADF80A00ADF80C0001A9174800F03AFF3B
:1023100001A9154800F08CFF01A9134800F0E8FF5F
:1023200001A9114801F03EF801210F4800F01AFF01
:1023300008210D4800F072FF08210B4801F070F8E9
:102340000821094800F0C6FF0821074801F020F8DD
:102350000121054800F0EEFE0121034800F0F6FEE1
:1023600009B030BD00080140002C0140704700005A
:1023700070B5002100230F22C47804B3154C2468E3
:1023800004F4E064C4F5E064210AC1F10403CA4026
:10239000447804FA03F184781440214309010E4C77
:1023A0000678A155047804F01F050124AC40057897
:1023B0006D11AD0005F1E025C5F8004109E0047894
:1023C00004F01F050124AC40044D0678761145F851
:1023D000264070BD0CED00E000E400E080E100E08C
:1023E00002490143024A1160704700000000FA05EB
:1023F0000CED00E001460148405C70478608002073
:10240000002004E00021034A1154411CC8B20928ED
:10241000F8DB70478608002038B50446012000909C
:1024200000201E494870012000902EE0BDF80000F9
:10243000204018B101201A49086002E00020184924
:1024400008600120164908390860052001F006FFE0
:1024500000201449C1F8B401052001F0FFFE01205D
:102460001049C1F8B4011048D0F8000130B10B4850
:102470004078BDF80010084308494870BDF80000D6
:102480004FF6FF7101EA40000090BDF80000FF2800
:10249000CCDD102001F0E2FE38BD000086080020EF
:1024A000BC012242000022420000214210B5FFF789
:1024B000A7FF00F0A7F80F48C0780E49097940EA55
:1024C00001200D49088000240FE00C4810F814008A
:1024D000401E012101FA00F007490988084010B99F
:1024E000601CC0B210BD601CC4B2102CEDDB00201B
:1024F000F8E7000086080020CC000020D000002073
:1025000010B5002013490860102001F0A7FE01203B
:10251000FFF782FF4320FFF77FFF0020FFF77CFFDC
:102520000120FFF779FF0020FFF776FF0020FFF77B
:1025300073FF0020FFF770FF0020FFF76DFF002002
:10254000FFF76AFF01200449C1F8B801102001F02B
:1025500085FE10BDB80122420000224210B50020C5
:1025600013490860102001F079FE0120FFF754FFA5
:102570004320FFF751FF0020FFF74EFF0020FFF739
:102580004BFF5A20FFF748FF5A20FFF745FF5A201C
:10259000FFF742FF5A20FFF73FFF5A20FFF73CFFAB
:1025A00001200449C1F8B801102001F057FE10BD08
:1025B000B80122420000224208B50121102000F09B
:1025C000BBFA4FF46040ADF8000010208DF8030016
:1025D00003208DF8020069460848FEF7DFFE01215E
:1025E000042000F0A9FA0120ADF8000028208DF8A1
:1025F000030069460248FEF7D1FE08BD0010014005
:10260000000801401CB5002001900120009000202E
:102610002549086025490878FFF7FEFE23494878D8
:10262000FFF7FAFE0220019036E00120009027E03B
:1026300001201D49091F0860052001F00FFE002040
:102640001B49C1F8B401052001F008FE012018491A
:10265000C1F8B4011748D0F8000150B116489DF8F0
:102660000410405CBDF80010084313499DF8042095
:102670008854BDF800004FF6FF7101EA4000009059
:10268000BDF80000FF28D3DD102001F0E7FD9DF824
:102690000400401CC0B201909DF804000928C4DB6E
:1026A0000120014908601CBDB8012242CE00002073
:1026B00000002242000021428608002010B500F0F0
:1026C0000DF800F00BF800F009F8FFF719FF00F023
:1026D00027F800F081F8FFF741FF10BD10B500208A
:1026E0000D490860102001F0B9FD0120FFF794FEAC
:1026F0004220FFF791FE0020FFF78EFE0020FFF73B
:102700008BFE0020FFF788FE01200449C1F8B801C4
:10271000102001F0A3FD10BDB801224200002242AA
:1027200010B50020124908600120FFF775FE442013
:10273000FFF772FE0020FFF76FFE0120FFF76CFE2F
:10274000EE20FFF769FE0020FFF766FE0020FFF78E
:1027500063FE0020FFF760FE0020FFF75DFE012012
:102760000449C1F8B801102001F078FD10BD000047
:10277000B80122420000224270B505460C460020F6
:1027800013490860102001F069FD0120FFF744FEA5
:102790004220FFF741FE0020FFF73EFE2846FFF7EC
:1027A0003BFE2046FFF738FE0020FFF735FE0020F5
:1027B000FFF732FE0020FFF72FFE0020FFF72CFE70
:1027C00001200449C1F8B801102001F047FD70BD97
:1027D000B80122420000224210B500200D490860D5
:1027E000102001F03BFD0120FFF716FE4D20FFF702
:1027F00013FE0020FFF710FE0020FFF70DFE012062
:10280000FFF70AFE01200449C1F8B801102001F0C9
:1028100025FD10BDB80122420000224210B5124829
:10282000124908604FF07E50114908601148124962
:1028300008601248124908601248134908604FF0B6
:102840007C50124908601249086000201149086054
:1028500011481249086000201149086011490860B8
:1028600000F0E0F810BD0000000096439C0000203E
:10287000A00000200000A042A4000020CDCCCC3E4F
:10288000A80000200000C841AC000020B0000020DB
:10289000B4000020B800002000A08C45BC0000203F
:1028A000C0000020C400002010B500F001F810BDE9
:1028B00010B50F224849494800F036FA46480088CA
:1028C0004FF6FF7188422DD143484088884229D174
:1028D00041488088884225D13F48C088884221D11C
:1028E0003F48404908604FF07E503F4908603F48EC
:1028F0003F4908603F4840490860404840490860F7
:102900004FF07C503F4908603F49086000203F4934
:1029100008603F483F49086000203F4908603F4940
:10292000086057E02C49088805F01CF804463C492B
:1029300004F0CEFE2B4908602749888805F012F87C
:102940000446374904F0C4FE274908602249C88874
:1029500005F008F80446324904F0BAFE244908603C
:102960001D49088904F0FEFF04462D4904F0B0FE1D
:10297000214908601849888904F0F4FF0446284971
:1029800004F0A6FE1E4908601349C88904F0EAFF56
:102990000446234904F09CFE1A4908600E49088A3F
:1029A00004F0E0FF04461E4904F092FE1649086058
:1029B0000949887C04F0D6FF144908600649088B51
:1029C00004F0B8FF134908600349488B04F0CAFFBC
:1029D0001149086010BD00006808002000E00008F0
:1029E000000096439C000020A00000200000A042B0
:1029F000A4000020CDCCCC3EA80000200000C8419F
:102A0000AC000020B0000020B4000020B80000207E
:102A100000A08C45BC000020C0000020C4000020A5
:102A20000000C84210B52E492E48006804F0E2FFAD
:102A3000044604F05FFF2C49088029492B480068B0
:102A400004F0D8FF044604F055FF27498880244944
:102A50002748006804F0CEFF044604F04BFF2249EB
:102A6000C8801F492348006804F0C4FF044604F0EE
:102A700041FF1D4908811A491F48006804F0BAFF48
:102A8000044604F037FF1849888115491B4800683F
:102A900004F0B0FF044604F02DFF1349C88110492B
:102AA0001748006804F0A6FF044604F023FF0E490F
:102AB00008821448006804F01DFF0B494882124840
:102AC000006804F017FF084908831048006804F004
:102AD00011FF054948830F220D4800F05BF910BD36
:102AE0000000C8429C00002068080020A0000020D0
:102AF000A4000020A8000020AC000020B0000020AE
:102B0000B4000020B8000020BC000020C00000205D
:102B100000E000087047000029B1064AD26902436C
:102B2000044BDA6104E0034AD2698243014BDA6163
:102B3000704700000010024029B1064A9269024322
:102B4000044B9A6104E0034A92698243014B9A6103
:102B5000704700000010024030B500210022002420
:102B600000232D4D6D6805F00C0121B1042905D01D
:102B7000082923D105E0294D056022E0274D056095
:102B80001FE0254D6D6805F47012234D6D6805F446
:102B90008034022505EB92421CB9214D5543056056
:102BA0000BE01D4D6D6805F400351DB11C4D5543FE
:102BB000056002E0194D5543056002E0174D0560C0
:102BC00000BF00BF144D6D6805F0F0010909154DF7
:102BD0006B5C0568DD4045600F4D6D6805F4E06194
:102BE000090A104D6B5C4568DD4085600A4D6D68D3
:102BF00005F46051C90A0B4D6B5C4568DD40C5604A
:102C0000054D6D6805F44041890B074D6B5CC56847
:102C1000B5FBF3F5056130BD0010024000127A00EB
:102C200000093D00340000204400002021B102884A
:102C300042F04002028004E002884FF6BF731A405F
:102C4000028070470246002013890B400BB101201F
:102C500000E00020704701468889704781817047F5
:102C600010B50022028802F441520B884C8823439D
:102C70008C882343CC8823430C8923434C892343EA
:102C80008C892343CC8923431A430280838B4FF2E0
:102C9000FF74234083830B8A038210BD70B5054601
:102CA000002445F6FF7000F05FF80446C4B90D48F3
:102CB000006940F002000B4908610846456100695F
:102CC00040F04000086145F6FF7000F04DF8044602
:102CD000012C05D00348006920F002000149086179
:102CE000204670BD002002400948C16801F0010083
:102CF00008B10120704701F0040008B10220F9E793
:102D000001F0100008B10320F4E70020F2E7000012
:102D1000002002400348006940F08000014908613A
:102D2000704700000020024030B503460C461546AF
:102D3000002207E0184600F008F824F812009B1C57
:102D4000501C82B2AA42F5DB30BD014608887047AC
:102D500002480349486003484860704723016745BB
:102D600000200240AB89EFCD70B5044600BFFFF7ED
:102D7000BBFF0546012D00D006E0012001F06EFAF0
:102D8000601E84B2002CF2D100BF04B9FF25284692
:102D900070BD00002DE9F05F80468A461746B8F105
:102DA000006F02D33348804501D3BDE8F09FFFF7A1
:102DB000CFFFA8F1006B4FEA9B25CBF34809C9F57B
:102DC0000074A74200DC3C464EE04FF0006101EB8E
:102DD00085208A142849FFF7A7FF00260BE009EB9E
:102DE0000600254931F810004FF6FF71884200D0E7
:102DF00003E0701C86B2A642F1DB00BFA6421BDADC
:102E00004FF0006101EB8520FFF748FF002608E046
:102E10003AF8160006EB0901174A22F81100701C57
:102E200086B2A642F4DB4FF0006101EB85208A14E4
:102E3000114900F043F804E022465146404600F0B4
:102E40003DF8A74200D110E06D1C4FF000090AEBDD
:102E5000440A08EB4408381B87B2B7F5007F02DD4F
:102E60004FF4007400E03C46AFE700BFFFF752FFAD
:102E700000BF9AE7000001086804002070B505460D
:102E80000E46FF20FFF770FF044694B90A48006918
:102E900040F00100084908612E80FF20FFF764FF21
:102EA0000446012C05D00448006920F001000249C5
:102EB0000861204670BD0000002002402DE9F0416D
:102EC00005460E461746002407E036F8141028463B
:102ED000FFF7D4FFAD1C601C84B2BC42F5DBBDE83B
:102EE000F081704710B500F001F810BD0CB500205E
:102EF000019000903348006840F480303149086008
:102F000000BF3048006800F4003000900198401C79
:102F10000190009818B90198B0F5A06FF1D1294837
:102F2000006800F4003010B10120009001E00020A2
:102F300000900098012843D12348006840F0100019
:102F4000214908600846006820F003000860084630
:102F5000006840F0020008601A484068194948605B
:102F60000846406848600846406840F48060486011
:102F70000846406820F47C1048600846406840F4E9
:102F8000E81048600846006840F08070086000BFA4
:102F90000C48006800F000700028F9D0094840682B
:102FA00020F00300074948600846406840F00200EE
:102FB000486000BF0348406800F00C000828F9D1C1
:102FC0000CBD0000001002400020024030B5054654
:102FD0000C46002D07DD00202E49086001202E49F7
:102FE000C1F8900106E001202A49086000202A4922
:102FF000C1F89001284603F019FC28490880002CEC
:1030000008DD00202349091D086001202249C1F87C
:103010009C0107E001201F49091D086000201E498E
:10302000C1F89C01204603F001FC1C49091D0880E1
:10303000002A07DD00201A49086001201949C1F85B
:10304000B00106E001201649086000201549C1F8CA
:10305000B001104603F0EAFB104908310880002B4C
:1030600008DD01200E490831086000200D49C1F833
:10307000B80107E000200A49083108600120094929
:10308000C1F8B801184603F0D1FB04490C3108809F
:1030900030BD00009401214200002142342C014047
:1030A000B481214200802142042808D14FF0E02160
:1030B000096941F004014FF0E022116107E04FF08F
:1030C000E021096921F004014FF0E022116170470D
:1030D0007047000010B51348006840F00100114926
:1030E000086008464068104908400E494860084694
:1030F00000680E4908400B4908600846006820F443
:10310000802008600846406820F4FE0048604FF4C4
:103110001F008860FFF7E6FE4FF00060044908607A
:1031200010BD0000001002400000FFF8FFFFF6FE97
:1031300008ED00E021B1028842F08002028004E044
:1031400002884FF67F731A400280704721B10288CF
:1031500042F00102028004E002884FF6FE731A403A
:103160000280704731B1B0F8442042F40042A0F828
:10317000442005E0B0F84420C2F30E02A0F8442039
:103180007047000070B5002400220023058C4FF624
:10319000FE7635400584028C8388048B4FF68F754C
:1031A0002C40B51E2C400D882C43751E2A400D89DD
:1031B0002A434D882A43144DA8420BD0134DA842F0
:1031C00008D0134DA84205D0124DA84202D0124D8E
:1031D000A84213D14FF6F7752A404D892A434FF67E
:1031E000FB752A408D882A434FF6FF652B404FF62A
:1031F000FF552B408D892B43CD892B43838004833E
:10320000CD888586028470BD002C014000340140C9
:103210000040014000440140004801400A460021AE
:10322000018B4FF6F773194011430183704700007B
:1032300070B5002400220023058C4FF6EF76354050
:103240000584028C8388048B48F6FF752C404FF66A
:10325000FF452C400D884FF6FF7606EA05252C43E6
:103260004FF6DF752A400D8906EA05152A434D8879
:1032700006EA05152A43154DA84202D0144DA8426E
:103280001DD14FF67F752A404D894FF6FF7606EA2D
:1032900005152A434FF6BF752A408D8806EA0515A5
:1032A0002A434FF6FF352B404FF2FF752B408D8997
:1032B00006EA85052B43CD8906EA85052B438380E5
:1032C0000483CD880587028470BD0000002C014076
:1032D000003401400A460021018B4FF2FF73194070
:1032E0004FF6FF7303EA022319430183704700007E
:1032F00070B5002400220023058C4FF6FF66354090
:103300000584028C8388848B4FF68F752C404FF692
:10331000FC752C400D882C434FF6FF552A400D8933
:103320004FF6FF7606EA05252A434D8806EA05256D
:103330002A43154DA84202D0144DA8421DD14FF288
:10334000FF752A404D894FF6FF7606EA05252A4388
:103350004FF6FF352A408D8806EA05252A434EF6AA
:10336000FF752B404DF6FF752B408D8906EA05153C
:103370002B43CD8906EA05152B4383808483CD88B2
:103380008587028470BD0000002C0140003401409C
:103390000A460021818B4FF6F77319401143818350
:1033A0007047000070B5002200230024058C4EF603
:1033B000FF7635400584038C8488828B48F6FF7540
:1033C0002A404FF6FF452A400D884FF6FF7606EA61
:1033D00005252A434DF6FF752B400D8906EA053574
:1033E0002B434D8806EA05352B430B4DA84202D0EE
:1033F0000A4DA84208D14BF6FF752C408D894FF637
:10340000FF7606EA85152C4384808283CD88A0F858
:103410004050038470BD0000002C01400034014086
:103420000A460021818B4FF2FF7319404FF6FF735C
:1034300003EA0223194381837047000000220288B7
:103440001D4B98420ED01D4B98420BD0B0F1804FCF
:1034500008D01B4B984205D01A4B984202D01A4B09
:10346000984204D14FF68F731A404B881A43174B7A
:10347000984207D0164B984204D04FF6FF431A40AB
:10348000CB881A4302808B8883850B8803850A4B7F
:1034900098420BD0094B984208D00E4B984205D069
:1034A0000D4B984202D00D4B984201D10B7A038606
:1034B0000123838270470000002C0140003401404A
:1034C0000004004000080040000C004000100040D4
:1034D0000014004000400140004401400048014009
:1034E00010B508214F4800F06BF910B14D4800F0BD
:1034F00005FA4C48008800F08000F0B149480C30D3
:10350000008800F08000C0B1474801780078401C76
:10351000454A10704548405C4249091D08801046E4
:10352000007843490978884207D13E480C3000882A
:1035300020F080003B490C3108803A48008800F0B8
:10354000200000286DD03748001D0088C4B23948DB
:10355000007838B9AA2C05D10120364908703648C0
:1035600004705DE033480078012807D1AF2C05D105
:103570000220304908703048447051E02D480078EE
:10358000022807D1F12C05DC03202A4908702A48BB
:10359000847045E02748007803280CD1FF2C0ADA14
:1035A0000420244908702448C47024480470002072
:1035B0002349087034E01F480078042819D11F48B7
:1035C0000078002815DD1D480078401E1B49087052
:1035D0001B4800781A490978491C194A1170001DC6
:1035E00015490C5415480078D0B9052011490870C8
:1035F00016E01048007805280FD100200D4908700A
:103600000F480078001D0C490C540D480078401DEF
:10361000C1B20948FDF7ECFC02E000200549087042
:1036200000BF10BD0038014052000020F40100200E
:103630005300002054000020F40200205500002018
:103640005600002010B508214F4800F0B9F810B11D
:103650004D4800F053F94C48008800F08000F0B16C
:1036600049480C30008800F08000C0B1474801781C
:103670000078401C454A10704548405C4249091D8D
:1036800008801046007843490978884207D13E48AF
:103690000C30008820F080003B490C3108803A480B
:1036A000008800F0200000286DD03748001D0088F9
:1036B000C4B23948007838B9AA2C05D1012036495E
:1036C0000870364804705DE033480078012807D15F
:1036D000AF2C05D10220304908703048447051E0C9
:1036E0002D480078022807D1F12C05DC03202A4957
:1036F00008702A48847045E02748007803280CD1D8
:10370000FF2C0ADA0420244908702448C470244895
:10371000047000202349087034E01F480078042812
:1037200019D11F480078002815DD1D480078401E7B
:103730001B4908701B4800781A490978491C194A26
:103740001170001D15490C5415480078D0B905209A
:103750001149087016E01048007805280FD10020A4
:103760000D4908700F480078001D0C490C540D4895
:103770000078401DC1B20948FDF716F802E00020AC
:103780000549087000BF10BD00440040F100002052
:103790008F080020F2000020F30000208F09002095
:1037A000F4000020F500002021B1828942F400528B
:1037B000828104E082894DF6FF731A40828170474E
:1037C00002460020B1F5007F00D100BF13880B40F6
:1037D0000BB1012000E000207047F0B50346002443
:1037E00000260025002040F66A17B94200D100BF2C
:1037F0001846C1F3421401F01F06012707FA06F527
:10380000012C01D10C3004E0022C01D1103000E079
:1038100014301AB107682F43076002E00768AF430E
:103820000760F0BD2DE9F04786B005460E4600243E
:10383000A24600BFA1460027B08900B100BF2F46B5
:103840002C8A4CF6FF700440F08804432C82AC892B
:103850004EF6F3100440B08831890843718908435B
:103860000443AC81AC8A4FF6FF400440B089044366
:10387000AC8201A8FFF770F91F48874202D1DDF83A
:1038800010A001E0DDF80CA0A88900F4004040B1D0
:103890000AEBCA0000EB0A1031684900B0FBF1F8EE
:1038A00007E00AEBCA0000EB0A1031688900B0FBA0
:1038B000F1F86420B8FBF0F004012009642101FB59
:1038C0001089A88900F4004040B1322000EBC90003
:1038D000B0FBF1F000F00700044308E0322000EBF9
:1038E00009106421B0FBF1F000F00F0004432C81BB
:1038F00006B0BDE8F0870000003801400146888826
:10390000C0F308007047C1F308028280704700BF0F
:10391000FEE7000041F6BC301E4909684242914270
:1039200003DA41421B4A116005E01A4909688142E5
:1039300001DD18490860184909684242914203DADA
:103940004142154A116005E013490968814201DDD1
:1039500011490860114909684242914203DA414223
:103960000E4A116005E00B490968814201DD0B49EF
:1039700008600B4909684242914203DA4142084A11
:10398000116005E006490968814201DD04490860CB
:103990007047000004010020080100200C010020F5
:1039A00010010020490050EAC12018BF04204A0D30
:1039B00018BF40F0010040F2FF72B2EB515F08BF48
:1039C00040F00200012808BF052070472DE9F041B2
:1039D0004F1E00EBC7010446D1E9000115461E4603
:1039E00037F006020DD02A46334603F0FDFA7F1E5B
:1039F00004EBC703D3E9002303F0D6F837F006023F
:103A0000F1D1022F25D0042F13D0062F18BFBDE807
:103A1000F0812A46334603F0E7FAD4E90A2303F09B
:103A2000C3F82A46334603F0DFFAD4E9082303F04B
:103A3000BBF82A46334603F0D7FAD4E9062303F04D
:103A4000B3F82A46334603F0CFFAD4E9042303F04F
:103A5000ABF82A46334603F0C7FAD4E9022303F051
:103A6000A3F82A46334603F0BFFAD4E90023BDE8A1
:103A7000F04103F099B8012204F061B903F094B861
:103A8000002213461046114603F03EB9024A0020B8
:103A9000110704F054B9000001FDFFFF30380A2877
:103AA00001D20120704700207047014600BF7047D7
:103AB0002DE9FE4F06460F460025684601F0DCF969
:103AC000002442E056F8240057F82410A0EB010A25
:103AD000BAF1000F01DB514601E0CAF100010846CE
:103AE00003F028FF83464FF08F4103F0F1FD80463D
:103AF0005DF82400002103F0ADFE16D05DF824101F
:103B0000404603F0E5FD82464FF07E5104F070F828
:103B1000814629F0004A0F48416A504604F036F8C1
:103B200012D20120A04005430EE00A48C169404678
:103B300003F02CFF05D30748016A404604F026F83D
:103B400002D20120A0400543641C032CBADB2846A6
:103B5000BDE8FE8FF47D00082DE9F04D8D4F21F07A
:103B6000004A86B005460C46BA452ADBAAEB070098
:103B700028430AD08848824501DC1AD1CDB106B06D
:103B80002846BDE8F04DFFF776BF844A844B2846AF
:103B900003F02AFA07460E46824A834B28462146FE
:103BA00003F022FA06B03A463346BDE8F04D02F083
:103BB000FBBF0120FCF7EAFC06B0BDE8F04DFFF7C3
:103BC0005FBF7A48824542DABAF1795F0BDA28465C
:103BD000FFF7E8FE042808BFFFF758FF284606B0A5
:103BE0002146BDE8F08D2A460B46104603F0FCF94D
:103BF000834602466E480E460B4606217844FFF780
:103C0000E5FE5A46334603F0EFF9804669488A4696
:103C10005A46334604217844FFF7D8FE5A463346C5
:103C200003F0E2F900223B4602F0BEFF02460B46DB
:103C30004046514603F068F82A46234603F0D4F97B
:103C400006B02A462346BDE8F04D02F0ADBF284637
:103C500024F0004100223D463B4603F0C3FA4FF0FA
:103C6000FF3204F06CF80646024653480F460B46F6
:103C700006217844FFF7AAFE32463B4603F0B4F92A
:103C8000CDE900014D4832463B4604217844FFF718
:103C90009DFE32463B4603F0A7F900222B4602F078
:103CA00083FF834602913046394602F059FE804632
:103CB00043480D46504517DCDDE900015A46029B9A
:103CC00003F022F842462B4603F08EF942462B467B
:103CD00002F06AFF012204F032F8304A304B03F060
:103CE00073FB304A304B4CE04FF0000A52460B4613
:103CF000404602F059FFCDE9031052462B461046CC
:103D0000194603F071F932463B4603F06BFADDE9E0
:103D1000033202F0F9FF06460F46DDE900015A467C
:103D2000029B02F0F1FF83460091012230463946A2
:103D300004F005F8194A1A4B03F054FA06460F46E8
:103D400001224046294603F0FAFF5A46009B03F041
:103D50004BF932463B4603F037FB06460F4601223D
:103D60005046294603F0EBFF0E4DDFF858802A46F7
:103D7000434603F037FA32463B4603F033FA2A460D
:103D8000434603F02FFA002CD8BF81F0004106B063
:103D9000BDE8F08D0000F03F0000F07F075C1433B9
:103DA00026A6913C182D4454FB21F93F0000E03F2A
:103DB000284E00003E4E0000B24D0000C84D0000ED
:103DC0003333EF3FFB21E93F2DE9F84F04460D4621
:103DD00021F0004000917349814211DC7249884210
:103DE00001DC06D12CB120462946BDE8F84FFFF78B
:103DF00042BE6E48002DCCBF6D496E49BDE8F88FBC
:103E00006D49814211DD6D498142D8BF4FF0FF36C7
:103E10006DDD20462946FFF7C5FD042808BFFFF7E2
:103E200035FE20462946BDE8F88F6549654F25F0E7
:103E30000045814233DD6449814219DD0026324666
:103E40004FF080432046294602F0AEFE80468A4667
:103E500001222046294603F072FF00223B4603F070
:103E6000B3FA4246534602F04FFF04460D463EE089
:103E700001260022BA463B462046294602F094FE1F
:103E800080460F46002253462046294603F09CFAFE
:103E900042463B4602F038FF04460D4627E04B49B8
:103EA00081421BDDDFF828A102260022534620466E
:103EB000294603F099F800223B4602F075FE804641
:103EC0000F46002253462046294603F07DFA42461B
:103ED0003B4602F019FF04460D4608E00326224641
:103EE0002B4600203B4902F00FFF04460D462246B8
:103EF0002B461046194603F077F88B468246024659
:103F00000B4603F071F807460246334888460B46D5
:103F100006217844FFF75AFD52465B4603F064F8E9
:103F200082462E488B463A46434605217844FFF7A1
:103F30004DFD3A46434603F057F802460B46002E25
:103F4000504659460CDA02F02FFE22462B4603F06B
:103F50004BF801B022462B46BDE8F04F03F042B9C2
:103F600002F022FE22462B4603F03EF81C4A7A4419
:103F700002EBC603D3E9002303F026FA22462B46C0
:103F800003F022FA174A7A4402EBC603D3E900236E
:103F900003F028F9009A002AB8BF81F00041BDE87B
:103FA000F88F0000000010440000F07F182D4454EA
:103FB000FB21F93FFB21F9BF0000DC3F0000203E60
:103FC0000000F33F0000F03F0000E63F00800340A8
:103FD0000000F83F0000F0BFCA4B0000884B000013
:103FE000264B0000EE4A00002DE9F04D9446CCF13E
:103FF000000423F000464CEA0404524F46EAD4740D
:104000009A46884621F00042BC4206D8454240EA22
:10401000050442EAD474BC4204D9BDE8F04D6246BE
:10402000FFF72CBDAAF14055A5F17F6555EA0C04B8
:104030000BD0022404EAAA74434DDFF810E144EAED
:10404000D87452EA000B04D00CE0BDE8F04DFFF745
:10405000BBBE002C14BF012CBDE8F08D022C30D06B
:10406000032C32D056EA0C0B0AD0BE4220D1BA4201
:1040700009D126F0804622F080423346114617E0EF
:1040800000291ADB25E0DFF8C8B0FB44002C04BF90
:10409000DBE90001BDE8F08D012C02BFDBE9000186
:1040A00081F00041BDE8F08D022C0AD0032C0CD029
:1040B000BA4212D1B8F1000F0BDA23482549BDE806
:1040C000F08D28462449BDE8F08D28467146BDE8AC
:1040D000F08D1D482149BDE8F08D921B12153C2A38
:1040E000C4BF19481D490EDCBAF1000FBEBF12F162
:1040F0003C0F0020014606DB624602F005FE21F07F
:104100000041FFF761FE002C08BFBDE8F08D012CD7
:1041100004BF81F00041BDE8F08D114A114B022C23
:1041200007D003F051F92A46BDE8F04D0A4B03F0E1
:104130004BB903F049F92A46BDE8F04D064B03F0B0
:1041400051B800000000F07F182D4454FB2109C035
:10415000824A0000FB21F9BFFB210940FB21F93F06
:10416000075C143326A6A13C2DE9F0410446E07813
:1041700000F0C006E07800F03F05607800F0010034
:1041800098B1EF102846E91705EB5171C910A5EB5E
:10419000C101491C01F0FF080B48006820B10A4822
:1041A000414602683846904700BF607800F008003A
:1041B00030B10548406818B1B011034A51688847CA
:1041C0000020BDE8F0810000F403002010B56FF07E
:1041D0000400FEF769FF0A4800680A49B0FBF1F0E5
:1041E000094908700846007800EB4001C1EBC01097
:1041F0004FF6FF7101EAC0000449088010BD0000BD
:104200002000002000127A00480000204A00002010
:104210000146114A12884A434FF0E0235A610022B6
:104220009A611A46126942F001021A6100BF4FF00A
:10423000E022106900F001021AB100F48032002A75
:10424000F5D04FF0E022126922F001024FF0E02396
:104250001A6100229A6170474A0000200146114A03
:1042600012784A434FF0E0235A6100229A611A46BD
:10427000126942F001021A6100BF4FF0E02210699A
:1042800000F001021AB100F48032002AF5D04FF09C
:10429000E022126922F001024FF0E0231A610022AD
:1042A0009A6170474800002038B5044664B1202068
:1042B0008DF8000028208DF8010030208DF80200D4
:1042C00038208DF8030004E0A32204216846FCF79F
:1042D000D5F86A46042140F69E2002F067FA01F004
:1042E00051FE38BD3EB5044602208DF80000CA20BC
:1042F0008DF80100E3208DF8020009208DF80300FD
:104300006A460421682002F051FAA3208DF80000CB
:1043100004F0400048B1C0208DF80100C8208DF89D
:104320000200C2208DF8030006E0A3208DF80100F2
:104330008DF802008DF8030004F4C07048B1C42069
:104340008DF80400CC208DF80500C6208DF80600FD
:1043500006E0A3208DF804008DF805008DF8060016
:10436000A3208DF807008DF808008DF809006A4633
:104370000A2140F6A72002F019FA04F0030018B150
:1043800020208DF8000002E0D8208DF800006A4659
:10439000012140F6B62002F009FA04F0200018B11D
:1043A000012000F0ADF802E0002000F0A9F804F4CC
:1043B000C07008B304F4807060B1B2208DF80000C2
:1043C0008B208DF80100B6208DF802009B208DF81F
:1043D00003000BE0B0208DF8000080208DF8010074
:1043E000B4208DF8020090208DF803006A46042165
:1043F00040F6A22002F0DAF904F0010020B3F82020
:104400008DF800006A4601214FF40B6002F0CEF9EE
:10441000FA21072000F02CFC072000F0F3FB01201C
:1044200000F013FC642000F0F3FC4FF4FA7000F08D
:1044300002FDC821304800F0A3FB282000F0BCFB9F
:104440000A2000F0CCFB08E0D8208DF800006A4676
:1044500001214FF40B6002F0A9F904F0020018B139
:10446000D9208DF8000002E0D8208DF800006A46BF
:10447000012140F23D7002F099F904F0040018B1F6
:10448000012000F069F802E0002000F065F804F077
:10449000100018B10120FFF707FF02E00020FFF72E
:1044A00003FF44F008001549488101F06BFD00202E
:1044B0001249887304F0400018B10846807B801DC3
:1044C000887304F4C07020B10C48807B801D0B49B8
:1044D000887304F0140020B10848807B103007492D
:1044E000887304F0030020B10448807B001D034959
:1044F000887300203EBD000009E3CA02F4030020D7
:104500003EB504466CB10EA1D1E900208968CDE921
:10451000002002916A4609214FF4976002F046F9A3
:104520003EBD0AA2D2E900109268CDE901020091D5
:104530006A4609214FF4976002F038F9F0E700006D
:10454000B8AAB38DB4980D355D000000B8AAAAAA28
:10455000B088C3C5C700000038B5044664B1C020A8
:104560008DF80000C2208DF80100C4208DF80200F3
:10457000C6208DF8030004E08B2204216846FBF777
:104580007DFF6A46042140F6982002F00FF901F001
:10459000F9FC38BD10B5C8234FF48062024940F6DB
:1045A000F63001F083FB10BD1C7E00082DE9F04FB2
:1045B0008DB00746884615469946DDE9166B0024FE
:1045C000002030806B49887B5A4605A901F03AFCEF
:1045D00018B1601E0DB0BDE8F08F6648807A00F01B
:1045E0001400002867D09DF8140000069DF81510EF
:1045F00040EA01409DF8161040EA01209DF817108E
:10460000084328609DF8180000069DF8191040EA3C
:1046100001409DF81A1040EA01209DF81B10084344
:1046200068609DF81C0000069DF81D1040EA0140DE
:104630009DF81E1040EA01209DF81F100843A86055
:104640009DF8200000069DF8211040EA01409DF8E9
:10465000221040EA01209DF823100843E86004F18D
:104660001000C4B228680014019068680014029019
:10467000A86800140390E86800140490019840436F
:10468000029901FB0100039901FB0100049901FB60
:10469000010ABAF1706F02DBBAF1885F05DD01F043
:1046A00071FC00203080401E94E7B6F9000040F411
:1046B0008070308000BF2F48807A00F0400020B327
:1046C00005A9601C085C095D40EA012000B2A8F859
:1046D000000005A9E01C095C05AAA01C105C41EAC9
:1046E000002000B2A8F8020005A9601D095C201D89
:1046F000105C41EA002000B2A8F80400A01DC4B27A
:10470000B6F9000040F0080030801A48408900F4F3
:10471000C07008B305A9601C085C095D40EA01206F
:1047200000B2388005A9E01C095C05AAA01C105C39
:1047300041EA002000B2788005A9601D095C201DB7
:10474000105C41EA002000B2B880A01DC4B2B6F9E6
:10475000000040F0700030800648807A00F00300CE
:1047600018B105A90819FFF7FFFC484600F030FF13
:1047700000202FE7F403002070B588B0064601A89A
:1047800001F0E8F8BDF804000021C90341EA5045F2
:10479000C4034448007A00F0030056F82000059056
:1047A0004048007A00F0040010B10598404205909E
:1047B0003C48007AC0F3C10056F820000690394802
:1047C000007A00F0200010B106984042069035486B
:1047D000007AC0F3811056F8200007903148008914
:1047E00000F4807010B10798404207900598C117F7
:1047F000A0FB042301FB043100FB0510810041EA0A
:10480000927005900698C117A0FB042301FB0431A8
:1048100000FB0510810041EA927006900798C117CD
:10482000A0FB042301FB043100FB0510810041EAD9
:10483000927007900598000E8DF808000598000CFE
:104840008DF809000598000A8DF80A000598C0B295
:104850008DF80B000698000E8DF80C000698000CE1
:104860008DF80D000698000A8DF80E000698C0B26B
:104870008DF80F000798000E8DF810000798000CB7
:104880008DF811000798000A8DF812000798C0B241
:104890008DF8130002AA0C214FF4257001F086FF59
:1048A00008B070BDF403002030B585B0044616A2F0
:1048B00007CA02AB07C3C82C03DD4FF0FF3005B0B9
:1048C00030BDC82090FBF4F0401E85B2280A8DF858
:1048D0000000E8B28DF801006A46022140F216207D
:1048E00001F064FF10B14FF0FF30E8E702AA0C219D
:1048F00040F6C12001F05AFF10B14FF0FF30DEE763
:10490000044884810020DAE7FEF2ABC4AAF1DFDFBD
:10491000BBAFDFDFF40300201FB504464848007A30
:1049200000F0030054F8200001904548007A00F0A0
:10493000040010B10198404201904148007AC0F350
:10494000C10054F8200002903D48007A00F0200099
:1049500010B10298404202903948007AC0F38110A9
:1049600054F8200003903648008900F4807010B19C
:104970000398404203903349019880FB0101800F66
:1049800040EA810001902F49029880FB01108200CB
:1049900042EA917002902B49039880FB011082003B
:1049A00042EA917003900198000E8DF80000019882
:1049B000000C8DF801000198000A8DF802000198A2
:1049C000C0B28DF803006A4604214FF4747001F000
:1049D000EDFE18B14FF0FF3004B010BD0298000E8C
:1049E0008DF800000298000C8DF801000298000A72
:1049F0008DF802000298C0B28DF803006A460421C7
:104A00004FF4757001F0D2FE10B14FF0FF30E3E7C4
:104A10000398000E8DF800000398000C8DF801003B
:104A20000398000A8DF802000398C0B28DF80300C5
:104A30006A4604214FF4767001F0B8FECCE700001E
:104A4000F403002009E3CA0210B586B0044647A06B
:104A50000068039046A00068029046A0006801909C
:104A600045A00068009004F0030003A9085C8DF8DD
:104A7000140003A8C4F3C101405C8DF8150003A81D
:104A8000C4F38111405C8DF8160004F0030002A904
:104A9000085C8DF8100002A8C4F3C101405C8DF8D9
:104AA000110002A8C4F38111405C8DF8120005AA20
:104AB000032140F2264001F079FE18B14FF0FF309B
:104AC00006B010BD04AA032140F22A4001F06EFE98
:104AD00010B14FF0FF30F3E7019805900098049073
:104AE00004F0040058B19DF8140040F001008DF866
:104AF00014009DF8100040F001008DF8100004F043
:104B0000200058B19DF8150040F001008DF8150007
:104B10009DF8110040F001008DF8110004F4807040
:104B200058B19DF8160040F001008DF816009DF870
:104B3000120040F001008DF8120005AA03214FF485
:104B4000886001F033FE10B14FF0FF30B8E704AADF
:104B5000032140F2314001F029FE10B14FF0FF3047
:104B6000AEE7064804810020AAE700004CCD6C00A7
:104B70000CC92C003656760026466600F403002049
:104B8000F8B505460E464FF47A7095FBF0F000FB41
:104B900006F4200E8DF80000200C8DF80100200A8C
:104BA0008DF80200E0B28DF803006A4604214FF44C
:104BB000AE7001F0FBFDF8BD38B50446052094FB4E
:104BC000F0F084B220128DF80000E0B28DF8010000
:104BD0006A4602214FF4AD7001F0E8FD38BD38B5EA
:104BE0000446052094FBF0F084B220128DF80000FA
:104BF000E0B28DF801006A4602214FF4AC7001F07A
:104C0000D5FD38BD38B504460020009004F0010001
:104C100020B19DF8000040F03000009004F0020048
:104C200020B19DF8000040F00C00009004F004005A
:104C300020B19DF8000040F0030000906A46012179
:104C40004FF4A47001F0B2FD38BD38B50446012C14
:104C500001DA012402E0042C00DD0424601EC0B24D
:104C600000906A46012140F24F1001F09FFD38BDCF
:104C70002DE9FC4706460F4606F0070010B1B7F5D0
:104C8000C86F03DD4FF0FF30BDE8FC87384602F007
:104C900069FE8146594902F01BFD8046684600F0D6
:104CA00033FE9DF80000022806D0042816D00828FC
:104CB00026D0102848D135E04FF08D41404602F013
:104CC00099FE814602F016FE84B24D49404602F03C
:104CD00091FE814602F00EFE85B238E04FF08C4125
:104CE000404602F087FE814602F004FE84B2454948
:104CF000404602F07FFE814602F0FCFD85B226E0D0
:104D00004FF08B41404602F075FE814602F0F2FD05
:104D100084B23D49404602F06DFE814602F0EAFD54
:104D200085B214E04FF08A41404602F063FE8146AE
:104D300002F0E0FD84B23549404602F05BFE814658
:104D400002F0D8FD85B202E04FF0FF309CE700BFD3
:104D500020128DF80400E0B28DF8050028128DF8BD
:104D60000600E8B28DF8070006F00100A0B101AA24
:104D700002214FF4EA7001F019FD10B14FF0FF303D
:104D800082E70DF1060202214FF4927001F00EFD50
:104D900010B14FF0FF3077E706F00200A0B101AA92
:104DA00002214FF4EC7001F001FD10B14FF0FF3023
:104DB0006AE70DF1060202214FF4947001F0F6FC4F
:104DC00010B14FF0FF305FE706F00400A0B101AA78
:104DD00002214FF4EE7001F0E9FC10B14FF0FF300A
:104DE00052E70DF1060202214FF4967001F0DEFC4D
:104DF00010B14FF0FF3047E7002045E7000048437F
:104E0000000040460000C045000040450000C0448E
:104E100038B50446052094FBF0F085B228128DF8D1
:104E20000000E8B28DF801006A4602214FF4EF70ED
:104E300001F0BCFC38BD38B50446052094FBF0F009
:104E400085B228128DF80000E8B28DF801006A469C
:104E500002214FF4ED7001F0A9FC38BD00BF054AF6
:104E6000128802F04002002AF9D0C2B2014B1B1D89
:104E70001A807047004400407CB5054628494968BF
:104E8000087801AB04220D21FDF707F908B10720CE
:104E90007CBD9DF80700C0F301109DF8041001F0DF
:104EA000E00140EAE1008DF800009DF80700C0F342
:104EB00081009DF8051001F0E00140EAE1008DF865
:104EC00001009DF8070000F003009DF8061001F0B6
:104ED000E00140EAE1008DF8020000241CE01DF82A
:104EE000040018B9002045F8240013E00D4845F8E7
:104EF000240006E055F824000B4902F07BFD45F83C
:104F000024001DF80400401EC0B20DF80400002863
:104F1000F0D100BF601CC4B2032CE0DB0020B7E777
:104F2000580000207B14AE3E1D5A843F2DE9F04FFF
:104F300087B005460C46914601208DF810000020F0
:104F40008DF81100FE4A1268917CFD4A5268107873
:104F500004AB0222FDF747F920B14FF0FF3007B054
:104F6000BDE8F08FC820FFF753F900208DF810003E
:104F7000F34A1268D17BF24A5268107804AB0122DE
:104F8000FDF731F910B14FF0FF30E8E7EC4A126855
:104F90005179EB4A5268107804AB0122FDF723F9EE
:104FA00010B14FF0FF30DAE7E54A1268917CE44A2D
:104FB0005268107804AB0122FDF715F910B14FF0DB
:104FC000FF30CCE7DE4A1268D17DDD4A52681078A6
:104FD00004AB0122FDF707F910B14FF0FF30BEE737
:104FE000D74A12681179D64A5268107804AB012268
:104FF000FDF7F9F810B14FF0FF30B0E70C208DF855
:105000001000CF4A12681179CD4A5268107804AB6B
:105010000122FDF7E8F810B14FF0FF309FE70F20B5
:10502000FFF7F6F8C648806A407A8DF81000C44A47
:1050300012689178C24A5268107804AB0122FDF7D9
:10504000D2F810B14FF0FF3089E7BD48806A007A8E
:105050008DF81000BA4A12685178B94A526810782F
:1050600004AB0122FDF7BFF810B14FF0FF3076E737
:10507000B9F1000F07D0B248806A807A40F0E000B2
:105080008DF8100004E0AE48806A807A8DF8100038
:10509000AB4A12689179AA4A5268107804AB01228F
:1050A000FDF7A1F810B14FF0FF3058E7B9F1000F4C
:1050B00007D0A348806AC07A40F0E0008DF8100065
:1050C00003E0A048C07A8DF810009D4A1268D1799B
:1050D0009B4A5268107804AB0122FDF784F810B1A6
:1050E0004FF0FF303BE7B9F1000F02D0C820FFF7C7
:1050F0008FF840208DF81000914A12681179904A7B
:105100005268107804AB0122FDF76DF810B14FF032
:10511000FF3024E778208DF81000894A1268517911
:10512000874A5268107804AB0122FDF75CF810B191
:105130004FF0FF3013E783498889FFF769F80020B3
:105140008DF810007E4A126851797D4A52681078B5
:1051500004AB0122FDF747F810B14FF0FF30FEE637
:10516000774A1268917A764A5268107804AB022224
:10517000FCF793FF10B14FF0FF30F0E69DF81100FF
:105180009DF8101040EA012B0C209BFBF0F0C6B2FA
:105190000020A86068602860A0606060206082468F
:1051A00065E0674A1268D17A654A5268107804ABA4
:1051B0000C22FCF772FF10B14FF0FF30CFE69DF8E4
:1051C00011009DF8101040EA012000B2ADF808006F
:1051D0009DF813009DF8121040EA012000B2ADF8CE
:1051E0000A009DF815009DF8141040EA012000B255
:1051F000ADF80C00BDF90810206808442060BDF926
:105200000A10606808446060BDF90C10A06808448A
:10521000A0609DF817009DF8161040EA012000B22A
:10522000ADF800009DF819009DF8181040EA012023
:1052300000B2ADF802009DF81B009DF81A1040EA7C
:10524000012000B2ADF80400BDF900102868084440
:105250002860BDF90210686808446860BDF9041050
:10526000A8680844A8600AF1010000F0FF0AB245EE
:1052700097DB3448D0F800C02868C117090441EA18
:1052800010410704624600233846FAF7C2FF32464F
:105290000023CDE90201FAF7BCFF28602948D0F8C5
:1052A00000C06868C117090441EA1041070462465A
:1052B00000233846FAF7ADFF32460023CDE902015C
:1052C000FAF7A7FF68601F48D0F800C0A868C117A8
:1052D000090441EA10410704624600233846FAF700
:1052E00098FF32460023CDE90201FAF792FFA86049
:1052F0001448D0F804C02168C817000440EA1148D7
:105300000F046246002338464146FAF782FF3246D0
:105310000023CDE90201FAF77CFF20600948D0F8AC
:1053200004C06068C117090441EA104107046246DD
:1053300000233846FAF76DFF3246002304E00000F0
:1053400058000020F47D0008CDE90201FAF761FF62
:1053500060601148D0F804C0A068C117090441EA90
:1053600010410704624600233846FAF752FF3246DE
:105370000023CDE90201FAF74CFFA060A0680028E5
:1053800004DDA068A0F58030A06003E0A06800F50F
:105390008030A0600020E2E5F47D00082DE9FC5F8C
:1053A00006460F4600253D494968087801AB0322AF
:1053B0000D21FCF772FE10B10720BDE8FC9F9DF89F
:1053C000040000F01F008DF804009DF8050000F0B7
:1053D0001F008DF805009DF8060000F01F008DF8F5
:1053E0000600002456E056F8240057F82410A0EBDD
:1053F000010BBBF1000F01DB594601E0CBF10001CD
:10540000084602F097FA4FF08F41009002F060F9E1
:10541000814601A8005D68B32149086802F0A2FA3C
:10542000834659461F4802F053F9804604E01E495E
:10543000404602F0DFFA804601A8005D401EC0B27F
:1054400001A908550028F2D14146484602F040F92A
:1054500083464FF07E5102F0CBFB82462AF0004B90
:105460000F488169584602F091FB12D20120A040FA
:1054700005430EE00A480169484602F087FA05D361
:1054800007484169484602F081FB02D20120A04052
:105490000543641C032CA6DB28468EE75800002039
:1054A000F47D000800B04C4554E3853F10B5044638
:1054B000204600F00FF80346E01C00F00BF843EA2A
:1054C000C00083B2A01D00F005F843EA801083B24B
:1054D000184610BD014691F90020002A01DD002088
:1054E0001EE091F90020002A01DA042018E091F969
:1054F0000120002A01DD012012E091F90120002A9B
:1055000001DA05200CE091F90220002A01DD0220D9
:1055100006E091F90220002A01DA062000E00720C7
:10552000704700001FB500240025FCF711F841E08A
:10553000601C84B2012C11D11F48006880F0004625
:105540001E48006880F00047002000900346324665
:1055500001901B4801683846FBF7A6FC1948006813
:1055600002F0ACF986B21848006802F0C3F987B2BD
:1055700000200090019002900346024631460390BD
:105580003846FBF7A3FA012C00DB0024681C85B227
:1055900040F6C41085420AD10025FCF781FB0B4977
:1055A00008800846008881B26F20FBF733FC012099
:1055B000FEF72EFEBCE700000C00002008000020D3
:1055C00004000020C4000020BC0000201C000020BB
:1055D0007047000070B50446002624F00104184806
:1055E00090F8240008B1002070BD1548807A10B9E9
:1055F0004FF0FF30F8E71248057C807A20401049D0
:1056000008740846007CA04202D04FF0FF3600E04C
:10561000002614B90A48007D18B1012001F058F99C
:1056200002E0002001F054F93CB100F0ABFC20B1E5
:10563000034805744FF0FF30D6E73046D4E700004A
:10564000580000202DE9F04F99B004460D4616464B
:105650004FF07E574FF000084FF000094FF0000A5E
:1056600012A813A918AB0EAACDE9001014A916A808
:10567000FEF79CFF18B1012019B0BDE8F08FBDF80E
:105680004C0000F4807000287ED00E9802F052F991
:1056900083464FF09D4102F01BF807460F9802F039
:1056A00049F983464FF09D4102F012F88046109868
:1056B00002F040F983464FF09D4102F009F881461F
:1056C000119802F037F983464FF09D4102F000F83F
:1056D000824639464FF0804002F08CF949460590E9
:1056E00002F088F9414607904FF0404002F082F9FD
:1056F0005146059002F07EF90690079901F07AFF75
:10570000834601F04BFFCDE90801FEF725FA4FF083
:105710006632544BCDE90A0101F066FCCDE90C017B
:1057200001F010FA206049464FF0804002F062F923
:105730004946029002F05EF9414604904FF0404025
:1057400002F058F94146029002F054F9039004998E
:1057500002F04EFA83464FF07E5101F04BFF059068
:1057600001F01CFFCDE9080139464FF0804002F0FE
:1057700041F94146039002F03DF9494604904FF04B
:10578000804002F037F900E068E05146039002F0F3
:1057900031F98346049901F02DFF059001F0FEFEDA
:1057A000CDE90601DDE90823FEF71EFC4FF0663265
:1057B0002C4BCDE90A0101F017FCCDE90C0101F0F9
:1057C000C1F928605146504602F014F94946049048
:1057D000484602F00FF941460390404602F00AF9AC
:1057E00039460190384602F005F90090019901F020
:1057F00001FF0290039902F0FBF98346049902F03D
:10580000F7F9059001F0CAFECDE908015146384686
:1058100002F0F0F849460490404602F0EBF803909D
:10582000049901F0E7FE4FF08041059002F0E2F8A4
:10583000834601F0B3FECDE90601DDE90823FEF75A
:10584000D3FB4FF06632074BCDE90A0101F0CCFBE8
:10585000CDE90C0101F076F9306001E002200BE7A0
:10586000002009E766A64C4070B50024FCF778FAE2
:1058700000F024F9002840D1782000F02FFFC4B2B6
:105880000CB1012070BD7820FFF7A4FEC4B20CB1AA
:105890000220F7E7C82000F0D3FEC4B20CB1032009
:1058A000F0E7FEF777FEC4B20CB10420EAE7154832
:1058B000FFF7FCFD0546FFF7C7F8C4B20CB10520A1
:1058C000E0E740F27310FEF70DFDC4B20CB1062004
:1058D000D8E7C820FEF7E8FFC4B20CB10720D1E733
:1058E00000F0ABFF04460CB10820CBE7012000F02C
:1058F000A3FDC4B21CB10920C4E70A20C2E70020FE
:10590000C0E700008400002001461148407A30B111
:10591000012807D0022808D003280CD108E0022073
:1059200008700BE00420087008E00820087005E00B
:105930001020087002E04FF0FF30704700BF0448AD
:10594000C07C18B108784006000E08700020F4E70B
:105950005800002001461348407A30B1012808D091
:1059600002280AD0032810D10BE04FF480400880B1
:105970000EE041F69C7008800AE04FF480500880E9
:1059800006E04FF40060088002E04FF0FF307047FF
:1059900000BF0448C07C10B1088840100880002077
:1059A000F5E700005800002001460248007C08701E
:1059B000002070475800002001460F48007A30B19F
:1059C000012807D0022809D003280FD10AE0FA20C5
:1059D00008800EE04FF4FA7008800AE04FF47A7005
:1059E000088006E04FF4FA60088002E0002008809A
:1059F00000BF00BF002070475800002001460E483D
:105A0000007A30B1012807D0022808D003280CD131
:105A100008E00A4808600BE00948086008E0094807
:105A2000086005E00848086002E04FF0FF3070476A
:105A300000BF0020FBE700005800002000000343E7
:105A4000000083423333034233338341014612481B
:105A5000C07A082817D2DFE800F01704070A0D10F3
:105A60001318BC20088013E06220088010E02A2070
:105A700008800DE0142008800AE00A20088007E072
:105A80000520088004E000BF00BF0020088000BFA0
:105A900000BF002070470000580000200146064863
:105AA00090F8240010B14FF0FF3070470248C089D1
:105AB00008800020F9E70000580000201CB5802075
:105AC0008DF80000654A1268917C644A526810782B
:105AD0006B460122FCF787FB10B14FF0FF301CBD75
